:081000006F10003364DE0200F2
:101008000000000000000000902000206EBC0100DD
:10101800A9BDF9F5942000200000000000000000A0
:10102800962000209820002000000000000000000A
:101038009A200020000000009C20002000000000F2
:101048009E200020A02000200A2D0020A42000209F
:10105800A6200020A8200020742E0020AC2000200C
:10106800AE200020B0200020462D0020B420002013
:10107800F02C0020B8200020BA200020BC2000203E
:10108800BE200020802E0020B22D002082C8000043
:1010980001A001A001A001A001A001A001A001A040
:1010A80001A001A001A001A001A001A001A001A030
:1010B80001A001A001A001A001A001A001A001A020
:1010C80001A001A001A041118146014681451145B9
:1010D80006C6EF00D06EB727004011472383E7808C
:1010E800B7F700E003A707D16D9B23A8E7D003A7B4
:1010F80007D15D9B23A8E7D07300501001000100C1
:10110800B240410182804111814601468145114525
:1011180006C6EF00D06AB727004011472383E7804F
:10112800B717004003C7E70203C6E70483D787035E
:1011380091661377F70F1366360063E5D700719B46
:1011480013671700F3260080A18A9727000093876A
:10115800E7C299CAF32600809725000023A0D5C2CC
:101168009443DD9A7390068001000100B716004091
:10117800930570052380B604930580FA2380B6048E
:10118800010001002382060223800604F325008063
:101198009443A18ACD8E739006809726000023AFD2
:1011A80006BC01000100F3260080A18A99CAF32633
:1011B80000809725000023A3D5BC9443DD9A739043
:1011C800068001000100B7160040930570052380D2
:1011D800B604930580FA2380B60401000100238732
:1011E800E6022387C60423800604F326008098437A
:1011F800218B558F7310078017270000232007B80D
:101208000100010073270080218B19CB7327008010
:101218009726000023A4E6B698435D9B73100780C9
:101228000100010037170040930670052300D7041A
:10123800930680FA2300D704010001008346B7040F
:1012480093E60602A305D70423000704F3260080CB
:101258009843218B558F7310078017270000232F81
:1012680007B00100010037F700E0832607D193E6B5
:1012780046002328D7D0832607D1DD9A2328D7D044
:10128800730050100100010073270080218B19CBD7
:10129800732700809726000023A2E6AE98435D9B43
:1012A800731007800100010037170040930670058E
:1012B8002300D704930680FA2300D7040100010015
:1012C8008346B70493F6F60DA305D7042300070455
:1012D800732700809C43A18BD98F73900780972731
:1012E800000023AD07A801000100B240410182803F
:1012F8000111B7F5070026CA81460A86AA84E105C6
:10130800194506CE22CC4AC802C023120100EF00BC
:10131800104B371700408347E7028346E70403571B
:101328008703116693F7F70F93E636006365C700E6
:10133800F19B93E7170073270080218B1724000087
:101348001304C4A319CB7327008017260000232792
:10135800E6A218405D9B7310078001000100371753
:101368000040130670052300C704130680FA230003
:10137800C7040100010023020702230007047326A3
:1013880000801840218B518F7310078017270000A9
:101398002326079E0100010073270080218B19CBAB
:1013A8007327008017260000232AE69C18405D9BBF
:1013B80073100780010001003717004013067005FD
:1013C8002300C704130680FA2300C70401000100A4
:1013D8002307F7022307D70423000704F326008016
:1013E8001C40A18BD58F739007809727000023A7F7
:1013F800079801000100B7F600E083A706D193E73C
:10140800470023A8F6D003550702E577910713751F
:101418000560458D5D8D420541810100F3270080FF
:10142800A18B99CBF3270080172700002328F79476
:101438001C40DD9B7390078001000100B717004036
:10144800130770052380E704130780FA2380E70455
:101458000100010003C7F70013670704A387E7002B
:1014680003C7B70413670702A385E7042390A702FD
:1014780023800704732700801C40A18BD98F7390A9
:1014880007809727000023AB078E01000100B7F4FF
:10149800070037F900E0E104832709D1DD9B232801
:1014A800F9D073005010010001001305C012EF00BD
:1014B800D00081463000A685194502C423160100D4
:1014C800EF00F02F22478247E318F7FCF32700804C
:1014D800A18B99CBF3270080172700002320F78AD8
:1014E8001C40DD9B7390078001000100B717004086
:1014F800130770052380E704130780FA2380E704A5
:101508000100010003C7B7041377F70DA385E704AB
:1015180023800704732700801C40A18BD98F739008
:1015280007809727000023AB07840100010051457D
:101538006927F2406244D2444249056182804111E0
:1015480026C281460146AA848145114506C622C4A1
:10155800EF00F026371700408347E7028346E70489
:1015680003578703116693F7F70F93E63600636511
:10157800C700F19B93E7170073270080218B17148E
:1015880000001304A47F19CB7327008017160000EE
:101598002326E67E18405D9B73100780010001003A
:1015A80037170040130670052300C704130680FA96
:1015B8002300C704010001002302070223000704D7
:1015C800732600801840218B518F731007801717DE
:1015D80000002325077A0100010073270080218B72
:1015E80019CB73270080171600002329E6781840C6
:1015F8005D9B731007800100010037170040130638
:1016080070052300C704130680FA2300C7040100ED
:1016180001002307F7022307D704230007047327D1
:1016280000801C40A18BD98F73900780971700000A
:1016380023A607740100010013055002852237F71D
:1016480000E0832707D193E747002328F7D0F32743
:101658000080A18B99CBF327008017170000232F58
:10166800F7701C40DD9B7390078001000100B717DD
:101678000040130770052380E704130780FA2380CE
:10168800E7040100010003C7F70013670704A387F5
:10169800E70023800704732700801C40A18BD98FA3
:1016A800739007809717000023AA076C01000100B8
:1016B800F3270080A18B99CBF32700801717000030
:1016C800232EF76A1C40DD9B739007800100010000
:1016D800B7170040130770052380E704130780FA43
:1016E8002380E704010001002567D98C2390970225
:1016F80023800704732700801C40A18BD98F739027
:1017080007809717000023AB07660100010037F731
:1017180000E0832707D1DD9B2328F7D07300501002
:10172800010001008146014681451145EF0030095D
:10173800F3270080A18B99CBF327008017170000AF
:10174800232EF7621C40DD9B739007800100010087
:10175800B7170040130770052380E704130780FAC2
:101768002380E7040100010003C76704136717001B
:101778002383E70423800704732700801C40A18B80
:10178800D98F739007809717000023A9075E01007F
:101798000100B240224492444101828073270080B4
:1017A800218B971700009387675D19CB73270080FB
:1017B8009716000023A4E65C98435D9B731007808E
:1017C8000100010037170040930670052300D70475
:1017D800930680FA2300D704010001008346B7046A
:1017E80093F6F60DA305D70423000704732600809B
:1017F8009443A18AD18E739006809716000023AF78
:10180800065601000100937605026384061A034711
:10181800A700118B25EB73270080218B19CB732729
:1018280000809716000023ABE65498435D9B731025
:101838000780010001003717004093067005230058
:10184800D704930680FA2300D704010001008346D9
:10185800A70093E646002305D70023000704F326D4
:1018680000809843218B558F73100780171700004D
:1018780023260750010001001307004B0100010057
:101888007D176DFF73270080218B19CB732700808C
:101898009716000023A4E64E98435D9B73100780BB
:1018A8000100010037170040930670052300D70494
:1018B800930680FA2300D704010001007D892314D0
:1018C800A700010001000100010023000704F3261E
:1018D80000809843218B558F7310078017170000DD
:1018E800232E07480100010073270080218B19CBA4
:1018F800732700809716000023A2E64898435D9B53
:101908007310078001000100371700409306700527
:101918002300D704930680FA2300D70401000100AE
:1019280001000100B726004013061005A383C680F6
:1019380023000704F32600809843218B558F7310EA
:10194800078017170000232B0742010001007327A7
:101958000080218B19CB732700809716000023AFD6
:10196800E64098435D9B731007800100010037171C
:101978000040930670052300D704930680FA2300DD
:10198800D704010001008346B70493E60608A305BF
:10199800D70423000704732700809C43A18BD98FA9
:1019A800739007809717000023AA073C01000100E5
:1019B800828093760504638706160347A700418B48
:1019C80025EB73270080218B19CB7327008097168E
:1019D800000023A5E63A98435D9B73100780010039
:1019E800010037170040930670052300D7049306BB
:1019F80080FA2300D704010001008346A70093E67C
:101A080006012305D70023000704F3260080984326
:101A1800218B558F73100780171700002320073676
:101A2800010001001307007D010001007D176DFF13
:101A380073270080218B19CB73270080971600002D
:101A480023AEE63298435D9B7310078001000100C6
:101A580037170040930670052300D704930680FAD1
:101A68002300D704010001009376F50193E60604EC
:101A78002314D7000100010001000100230007041E
:101A8800F32600809843218B558F73100780171712
:101A980000002325072E01000100130760046312CC
:101AA800E50473270080218B19CB732700809716D4
:101AB800000023A5E62C98435D9B73100780010066
:101AC800010037170040930670052300D7049306DA
:101AD80080FA2300D70401000100B7260040094618
:101AE800B1B573270080218B19CB73270080971617
:101AF800000023A5E62898435D9B7310078001002A
:101B0800010037170040930670052300D704930699
:101B180080FA2300D70401000100B726004013060D
:101B2800200529B573270080218B19CB73270080E6
:101B38009716000023A4E62498435D9B7310078042
:101B48000100010037170040930670052300D704F1
:101B5800930680FA2300D70401000100835687000A
:101B680093E6060C2314D700E1B3411181460146E0
:101B78008145114506C6A121F3270080A18B971640
:101B880000009386A61F99CBF32700801717000043
:101B98002326F71E9C42DD9B7390078001000100FD
:101BA800B7170040130770052380E704130780FA6E
:101BB8002380E7040100010003C7670413671700C7
:101BC8002383E70423800704732700809C42A18BAA
:101BD800D98F739007809717000023A1071A010077
:101BE8000100B2404101828081460146814511458C
:101BF800F926F3270080A18B171700001307071891
:101C080099CBF32700809716000023A9F6161C43EA
:101C1800DD9B7390078001000100B7170040930611
:101C280070052380D704930680FA2380D704010027
:101C38000100FD562396D70223800704F32600806F
:101C48001C43A18BD58F739007809717000023A79B
:101C5800071201000100F3270080A18B99CBF3271D
:101C680000809716000023ABF6101C43DD9B739091
:101C7800078001000100B717004093067005238014
:101C8800D704930680FA2380D7040100010083C695
:101C9800670493E616002383D70423800704F326FA
:101CA80000801C43A18BD58F739007809717000085
:101CB80023A6070C0100010001A0D1473305F50256
:101CC80001007D1575FD8280411122C426C206C619
:101CD800AA84014463179400B2402244924441010B
:101CE800828005041305803E4204C13F4180DDB770
:101CF800B7170040130700032388E7028547171723
:101D08000000232BF70A73002030B717004083D751
:101D1800E70993F7070495C79717000083C7870C4F
:101D280091E7854717170000230EF70A854717170D
:101D38000000A309F70A13070004B7170040239F00
:101D4800E70873002030373700408347470099463B
:101D5800BD8B638ED70231476385E7001147639ACD
:101D6800E702B735004003C6A50017250000130594
:101D7800E5AEA105971000E0E780402F42054181BC
:101D88000DE5854717170000A309F70819A0834731
:101D980057007300203083468700850793F7F70FB5
:101DA8008346A700E3E9D7FEEDB781473737004000
:101DB800C5BF37470040834747C09946BD8B638FEF
:101DC800D70231476385E7001147639BE702B745B0
:101DD800004003C6A5C017250000130565089385B4
:101DE80085C0971000E0E7806028420541810DE535
:101DF8008547171700002302F70619A0834757C025
:101E080073002030834687C0850793F7F70F834612
:101E1800A7C0E3E9D7FEEDB7814737470040C5BF04
:101E2800411122C426C24AC006C637140040B7046E
:101E3800002013095002A30104049C40829797C014
:101E480000E0E78020CB974001E0E78040BB97C0E7
:101E580001E0E780C0C2979000E0E78080479737AD
:101E6800000083C7E76DE378F9FC97C001E0E780DD
:101E7800C0FED1B797B001E0E78040617300203021
:101E880037470040834747809946BD8B6384D70412
:101E980031476385E70011476390E704971700000F
:101EA80083C7F702B1CBB745004003C6A5801755D5
:101EB80000001305E59F93858580971000E0E78073
:101EC800E01A420541810DE58547171700002301F7
:101ED800F70019A083475780730020308346878016
:101EE800850793F7F70F8346A780E3E9D7FEEDB799
:101EF800814737470040C5BFB747004083C7878041
:101F0800E1BF2303048015472303E4800100230273
:101F1800A480828083076480E3CE07FE23030480C5
:101F2800828083076480E3CE07FE03454480828075
:101F380083076480E3CE07FE2302A48082804111D8
:101F480026C44AC24EC006C61377F50BAD47AA8908
:101F58002E8995446306F70019456537653F8D441A
:101F68004E854537FD59FD1463983401B240A244AB
:101F78001249824941018280135509011375F50FF1
:101F8800453F2209CDB7011126CC06CEB70408007B
:101F980051371545BD37713769372AC6A53F3245D0
:101FA8009377150089EB136515001375F50FF2404B
:101FB800E24405618280FD14E9FC0145CDBF397119
:101FC80026DC4ADA4ED852D656D45AD25ED006DE2D
:101FD80062CE66CCB7E700E07D5783AA070022C629
:101FE80003AA470023A0E71823A2E718B717004061
:101FF800130770052380E704130780FA2380E7049A
:1020080083C74704930B75FFB684E20793FBFB0F66
:102018008546AA892E8B328937240040E1870157EB
:1020280063FA76016308D500894613070002631333
:10203800D5000157D98F93F7F70FB71C00402382BB
:10204800FC0411472303E4801305F00F5D3D094CA0
:10205800D135636D7C11B7050700DA95378707001E
:10206800795563F2E504B3879500636EF702370B81
:102078000800A94733EB65016399F90689E48144AF
:10208800513D26850DA0DA850945553D05090345CD
:10209800F9FFFD14050B693D81C49377FB0FFDF72C
:1020A800DD3569FD7D55B71700401307700523809E
:1020B800E704130780FA2380E70403C74704418B2A
:1020C8002382E704F250B7E700E023A0571123A2C8
:1020D8004711E25432445259C259325AA25A125B39
:1020E800825B724CE24C21618280A5476395F906B8
:1020F80085691309F00FB3069900B3742B01B694E0
:102108001349F9FFB3749900856B33796901416B01
:102118009387F9FFB3F7270199E363FC340193D957
:102128004900C147E3E637FF99BF0569C1697D19D1
:10213800D9B71305800D638869011305000263840C
:10214800790113051008CA85DD3B353D21DD4E991F
:10215800B3843441D9B7DA852D45D533CA94E30021
:1021680099F205097D3BA30FA9FED5BF9387F9FF17
:1021780093F7F70F6361FC0C83C71C04130730083F
:10218800631FF70437070800636BEB04B3079B0072
:10219800B706100063F5D704334BEB008947639308
:1021A800F9068980D549E38C04ECDA850945413B79
:1021B80011090327C9FF91472320E480030764809E
:1021C800E34E07FE23033481FD17EDFBFD14110BCD
:1021D80081C49377FB0FE9FF7D3371F5E1B5B7173C
:1021E800004003C75704B70708001377070219E32D
:1021F800B78707007955E378FBEA33079B00E3FFCD
:10220800E7F855B58547E382F9F2DA852D45053BB0
:102218009389F4FFE38504E6293393F7390091EBBA
:10222800832604800327090093074900E39AE6E41C
:102238003E89CE84F1BFB5476396F9001305900B2C
:10224800C93135BDB1471305B00AE38BF9FE99478B
:102258006391F904B7050800B365BB002D45C53186
:1022680081448D4BA1497539639674018327048095
:102278002320F9008504E39834FF8327048013178B
:102288002B01635507002312F900D5BB2322F9005F
:10229800FDB39D476399F90281451305B0044531A3
:1022A800BD442320090023220900FD599D3993F7D5
:1022B8007400CA9703C70700FD14398D2380A7004F
:1022C800E39634FF6DBBA1476392F9046D398144ED
:1022D800630D0B008D479304C0036308FB00930450
:1022E800000563048B01930440041375C507E308D4
:1022F80095D81945393139390545213126850D39A2
:1023080009453D314931E31C05D669BB91476399BD
:10231800F90013056006F536F53E130590090DB76B
:08232800E38F09D4F154A9BBB5
:1023300097010020938101CD17610020130181CC0A
:1023400017F5FFFF130585CC97050020938585CBF6
:1023500017160020130686FD63FAC50083220500C8
:1023600023A0550011059105E3EAC5FE17C502003B
:10237000130505B097150020938545FB172600200F
:102380001306C69F63FAC5008322050023A05500EB
:1023900011059105E3EAC5FE172500201305059EEA
:1023A000975500209385C5546377B5002320050019
:1023B0001105E36DB5FEFD42739002BC8D42739032
:1023C0004280B72200009382828873A00230970275
:1023D0000020938222C393E232007390523097928E
:1023E000010093822260739012346FD073417300A6
:1023F00020303D432A876373C3029377F700BDEF14
:10240000ADE5937606FF3D8ABA960CC34CC30CC764
:102410004CC74107E36BD7FE11E28280B306C3408D
:102420008A069702000096966780A6002307B700E9
:10243000A306B7002306B700A305B7002305B7001E
:10244000A304B7002304B700A303B7002303B70016
:10245000A302B7002302B700A301B7002301B7000E
:10246000A300B7002300B700828093F5F50F939681
:102470008500D58D93960501D58D61B7939627007C
:102480009702000096968682E78086FA9680C117AA
:102490001D8F3E96E374C3F8A5B7B7170040854675
:1024A00003C8870583C89705238CD70403C79705FE
:1024B0001378F80F93F8F80F13678700A38CE704DD
:1024C00003C797051377B70FA38CE704238DD704B1
:1024D000371700408347A7051306A705858BFDFB2B
:1024E00005654147B7150040054E1303F5FF23006E
:1024F000C60183460600858AEDFE83D6C5057D1795
:10250000420793C6F6FFB3F666004183B69765F3BC
:10251000A1079183130505801D8DA38C1505420528
:10252000238C050541858280B717004003C77705D6
:102530001377E70FA38BE704130700F8A38DE704D5
:102540003D47238CE70413075003A38CE7048280E4
:102550000547B7170040238DE7043717004083472E
:10256000A705858BEDFF0355C70552055181828074
:10257000B717004083C7E7040D8993F7C70FC98FCA
:1025800073270080218B971600209386267F19CB16
:1025900073270080171600202322E67E98425D9B59
:1025A0007310078001000100371700401306700503
:1025B0002300C704130680FA2300C70401000100AA
:1025C0002307F70423000704732700809C42A18B94
:1025D000D98F739007809717002023A1077A0100F5
:1025E00001008280B717004083C7E704120593F704
:1025F000F708C98F93F7F70F73270080218B971681
:1026000000209386A67719CB732700801716002029
:102610002326E67698425D9B731007800100010037
:1026200037170040130670052300C704130680FA0D
:102630002300C704010001002307F7042300070457
:10264000732700809C42A18BD98F739007809717C6
:10265000002023A5077201000100828041112A8316
:10266000014E930E407E130F0019930F400663EE48
:102670006E149308001913034006B3781503854EB2
:102680000D4FA14F337365020D891335150063E8B3
:10269000BE161308F6FF79467298420813580801CF
:1026A0003307C70213D61700BE0732976146B3F649
:1026B000C60213068070B386C6023697A166F58FF0
:1026C00042075D8FB716004083C7F60293F70708ED
:1026D000A307F1000346F10083C7F60293F707084A
:1026E000E394C7FE8347F100B716004093F7F70F56
:1026F00063810716F3270080A18B9716002093862D
:10270000E667639E071401000100B7170040130637
:1027100070052380C704130680FA2380C7040100D4
:10272000010023AA070303C6170313660608A3883C
:10273000C70223800704732600809C42A18BD18F9F
:10274000739007809717002023AA076201000100F9
:102750001166B71500407D16DC59C85DA98FF18F51
:10276000E5FFF3270080A18B99CBF3270080171694
:1027700000202325F6609C42DD9B739007800100BA
:102780000100B7170040130670052380C704130625
:1027900080FA2380C70401000100D8DB03C71703B8
:1027A00013670704A388E7022380070473270080C8
:1027B0009C42A18BD98F739007809717002023AF7D
:1027C000075A01000100410182807D133368E30351
:1027D0009308E016630E08003368F3039308D016DD
:1027E000630808009378330093B818009388D816CC
:1027F00033081E01131E0801135E0E018DBD639385
:10280000E5030548638608000148630303002A883E
:1028100071087298FD15131E0801C205135E0E01A2
:10282000C181B5B513F8150063F4BF007908D5B7B9
:1028300013381800E5BF83C7F60293F70708A3070C
:10284000F1000346F10083C7F60293F70708E3940B
:10285000C7FE8347F10093F7F70FF1DF61BDF32760
:10286000008017160020232BF6509C42DD9B7390AE
:10287000078051BD4111B7170040985F3AC6945F79
:102880003247E39CE6FE324541018280914763EE88
:10289000B702172702001307E71F8A05BA959C4164
:1028A000BA978287B717004003A7470B1345F5FF78
:1028B000698F23AAE70A03A7070B698F23A8E70AF2
:1028C00003A7070A798D23A0A70A8280B7170040C3
:1028D00083A6470B1347F5FFF98E23AAD70A83A6D1
:1028E000070B558D23A8A70A83A6070A758F23A077
:1028F000E70A8280B717004003A7470B498F23AA36
:10290000E70A03A7070B1345F5FF45BFB7170040BC
:1029100083A6470B1347F5FF758F23AAE70A03A782
:10292000070A598D4DB7B717004003A7470B498FCA
:10293000EDB7914763EEB702172702001307C716DA
:102940008A05BA959C41BA978287B717004003A7BA
:10295000470D1345F5FF698F23AAE70C03A7070D61
:10296000698F23A8E70C03A7070C798D23A0A70C78
:102970008280B717004083A6470D1347F5FFF98EF5
:1029800023AAD70C83A6070D558D23A8A70C83A6D1
:10299000070C758F23A0E70C8280B717004003A7B0
:1029A000470D498F23AAE70C03A7070D1345F5FF31
:1029B00045BFB717004083A6470D1347F5FF758F36
:1029C00023AAE70C03A7070C598D4DB7B717004092
:1029D00003A7470D498FEDB79357E50093F70730ED
:1029E000C98FC2070547C1836382E5048DC10947CA
:1029F000638DE5040D476380E50637170040231F0C
:102A0000F70883562709D58F2319F70882803717CF
:102A100000400356670993C6F7FFF18E231BD708C2
:102A20008326C70C558D2326A70CC1BF371700403E
:102A30000356670993C6F7FFF18E231BD708832639
:102A4000870C558D2324A70C4DBF371700408356A4
:102A50006709DD8EE1B73717004083566709DD8EC1
:102A6000E9BF9D4763E3A702172702001307070585
:102A70000A053A951C41BA97375700408287834729
:102A8000270093F7070F2301F70082808347270071
:102A900093F7070F93E71700FDB78347270093F7D6
:102AA000070F93E74700C5B78347270093F7070F42
:102AB00093E75700C9BF8347270093F7070F93E7B2
:102AC0008700D1B78347270093F7070F93E7970055
:102AD0005DBF8347270093F7070F93E7C70065B7EC
:102AE0008347270093F7070F93E7D70069BF99EA59
:102AF000B757004003C707001345F5FF798D2380C2
:102B0000A70082803757004005CE83471700C98F42
:102B1000A300F70037570040814711072146B356FD
:102B2000F540858A89C6B386E7002380B60085070D
:102B3000E397C7FEB757004003C70700598DC1B7D9
:102B4000834617009347F5FFF58FD9B7411122C48B
:102B50003717004006C6834727020357070217149A
:102B600000201304A42193F7F70F4207418325EDBA
:102B70001377F79F420793F7F7074183F326008007
:102B8000A18A99CAF3260080171600202328D61E92
:102B90001440DD9A7390068001000100B7160040D2
:102BA000130670052380C604130680FA2380C6042A
:102BB0000100010093F7F70F2381F6022390E6024C
:102BC00023800604732700801C40A18BD98F73904B
:102BD00007809717002023A3071A01000100B240C5
:102BE00022444101828093E7070813670740F326D8
:102BF0000080A18A99CAF326008017160020232F8F
:102C0000D6161440DD9A7390068001000100B716B5
:102C10000040130670052380C604130680FA238043
:102C2000C604010001002381F6022390E6022380FE
:102C30000604732700801C40A18BD98F73900780F6
:102C40009717002023AC07120100010029459700C7
:102C50000020E780C006F3270080A18B99CBF327E3
:102C6000008017170020232BF7101C40DD9B73906A
:102C7000078001000100B71700401307700523808B
:102C8000E704130780FA2380E7040100010003D75B
:102C90000702136707202390E702238007041DB76C
:102CA000B717004003D5870042054181937705049B
:102CB00091EB9377F5013755E8011305058033450E
:102CC000F50282809377050C130700046397E700F1
:102CD0009377F50137459C1CCDB72165130505D0C9
:102CE000828037E700E01C435443A183E206D58F7E
:102CF0001CC1FD572320F7182322F71882801317D1
:102D00008500B7E700E023A0E710618123A2A710A8
:102D10008280B7F700E08847CC478280B717004031
:102D200083C7670493F7F70F93E6470019E193F61B
:102D3000B70FF3270080A18B171700201307070494
:102D400099CBF3270080171600202329F6021C4395
:102D5000DD9B7390078001000100B7170040130648
:102D600070052380C704130680FA2380C70401007E
:102D700001002383D70423800704F32600801C432B
:102D8000A18BD58F739007809717002023A807FE8B
:102D9000010001008280B717004083C7670493F7E2
:102DA000F70F93E6270019E193F6D70FF32700807A
:102DB000A18B17170020130767FC99CBF32700801E
:102DC00017160020232CF6FA1C43DD9B7390078016
:102DD00001000100B7170040130670052380C704E7
:102DE000130680FA2380C704010001002383D7045F
:102DF00023800704F32600801C43A18BD58F73909A
:102E000007809717002023AB07F60100010082809E
:102E1000F3270080A18B97160020938626F699CB86
:102E2000F327008017170020232AF7F49C42DD9B2C
:102E30007390078001000100B71700401307700569
:102E40002380E704130780FA2380E70401000100D0
:102E500003C76704136707012383E704238007047C
:102E6000732700809C42A18BD98F7390078097179E
:102E7000002023A507F00100010082808147373739
:102E80000040A14663C4C700328582800345B74035
:102E9000E38EA6FE3385F500034505008507230470
:102EA000A740CDB7411122C406C62A84D53B294785
:102EB000B307E502B2408D83B3D78702224495075A
:102EC000B3D7E70237370040C207C1832316F700A4
:102ED00041018280716541111305052006C6D9376D
:102EE000B7370040130770F82381E7000D47A3812F
:102EF000E70013070004A380E70005472387E700E6
:102F0000B2404101828037370040834727001A05CD
:102F100093F7F703C98F93F7F70F2301F700828028
:102F2000B737004003C7170019C9D98DA380B70070
:102F300003C70700136787002380E700828093C5DB
:102F4000F5FFF98DA380B7008280B73700401307E3
:102F500000F8A380E7008280B73700402147B736EA
:102F6000004091E1828003C6B700E30CC7FE05056F
:102F70000346F5FFFD15C2052384C600C181D5B700
:102F8000411122C406C62A84213B2947B307E50222
:102F9000B2408D83B3D7870222449507B3D7E702A7
:102FA00037370040C207C1832316F74041018280B2
:102FB000716541111305052006C6D937B7370040A2
:102FC000130770F82381E7400D47A381E7401307FB
:102FD0000004A380E74005472387E740B240410152
:102FE0008280B73700402147B736004091E18280A8
:102FF00003C6B740E30CC7FE05050346F5FFFD1504
:10300000C2052384C640C181D5B7411122C406C67A
:103010002A8479312947B307E502B2408D83B3D7BB
:10302000870222449507B3D7E70237470040C2071B
:10303000C1832316F7804101828071654111130518
:10304000052006C6D937B7470040130770F823811B
:10305000E7800D47A381E78013070004A380E78082
:1030600005472387E780B24041018280374700400F
:10307000834727801A0593F7F703C98F93F7F70F54
:103080002301F7808280B747004003C7178019C922
:10309000D98DA380B78003C707801367870023807B
:1030A000E780828093C5F5FFF98DA380B780828089
:1030B000B74700402147B746004091E1828003C6F0
:1030C000B780E30CC7FE05050346F5FFFD15C205F5
:1030D0002384C680C181D5B7411122C406C62A8483
:1030E000C1362947B307E502B2408D83B3D78702C3
:1030F00022449507B3D7E70237470040C207C18390
:103100002316F7C041018280716541111305052026
:1031100006C6D937B7470040130770F82381E7C0C8
:103120000D47A381E7C013070004A380E7C005474C
:103130002387E7C0B2404101828037470040834780
:1031400027C01A0593F7F703C98F93F7F70F2301E9
:10315000F7C08280B747004003C717C019C9D98D8F
:10316000A380B7C003C707C0136787002380E7C0E9
:10317000828093C5F5FFF98DA380B7C08280B747E1
:103180000040130700F8A380E7C08280B7470040E3
:103190002147B746004091E1828003C6B7C0E30CE7
:1031A000C7FE05050346F5FFFD15C2052384C6C00D
:1031B000C181D5B7B7870040238007001307C0FC43
:1031C0002386E700A386E70017170020035747BBB5
:1031D0002398E700171700200357C7BA239AE70080
:1031E00017170020035747BA239CE7001717002042
:1031F0000357C7B9239EE70089462381D702494771
:103200002383E7022385E7022387E7022389D70286
:10321000A3810700130790022380E700B716004040
:1032200003D7A6011367070C239DE6007D57238370
:10323000E700130710F8A380E7001D472381E7008C
:103240008280B78700402382A70203C767021377F3
:10325000C70F2383E7028280CC41411106C6328525
:1032600003C6150083C5050022064D8E42068D65F6
:103270004186138875A2630C0611634BC80413883A
:1032800045A26300060D634AC800938535A2630119
:10329000B6082390060029464DA0138855A2630561
:1032A000060D938565A2E316B6FEC1451D4663E68D
:1032B000E5084546198E63F3C7003E86B70704004C
:1032C0002390C600FC4797250200938525829DA088
:1032D000138895A263030611634E060D1388A5A2F9
:1032E00063000613938505A5E315B6FA99451D46B7
:1032F00063E5E504198E63F3C7003E86B707040053
:103300002390C600FC47971500209385259F1DA09C
:103310009D451D4663E3E5022146198E63F3C70010
:103320003E86B7070400FC472390C600971500208F
:10333000938505A6BA9582970146B2403285410130
:103340008280AD451D46E3EAE5FE3146198E63F302
:10335000C7003E86B70704002390C600FC479715B8
:1033600002009385657CF9B7B1451D46E3E7E5FCAE
:103370003546198E63F3C7003E86B70704002390D5
:10338000C600FC47971502009385057B65B7C145CC
:103390001D46E3E4E5FA4546198E63F3C7003E8611
:1033A000B70704002390C600FC47971502009385D9
:1033B000257549B7C1451D46E3E1E5F84546198E37
:1033C00063F3C7003E86B70704002390C600FC479E
:1033D0009715020093854577B1BFC1451D46E3EEC1
:1033E000E5F44546198E63F3C7003E86B70704002F
:1033F0002390C600FC47971502009385A5711DBF59
:10340000B5451D46E3EBE5F23946198E63F3C70077
:103410003E86B70704002390C600FC4797150200BC
:103420009385C56B01BFB707040003A30713970675
:1034300000209386A6024146CD45170500201305BE
:10344000E5EE02832D4549EF03C5050009476315E5
:10345000E50803A84500411106C603471800328558
:103460000346080022074168518F930828FE63082D
:10347000170363E9E80005186303070523900600B6
:1034800029451DA8130648FE630BC7021518E3174C
:1034900007FF19463E876379F602194735A03E8635
:1034A00091C30546B7070400FC472390C6004206B7
:1034B000CC45418282970145B2404101828051460C
:1034C0003E876373F6005147B70704002390E60078
:1034D000FC4713160701E9BF2390060005458280CB
:1034E000828083C7850093F70702E9E7411106C68A
:1034F00022C426C24AC003C9050009432E88854755
:10350000631B690203A345003284B684834713001A
:1035100003430300A207B3E767004163130E13FEE2
:103520006382C7030D13638D67040D681308289029
:1035300063870707A947B2402244924402493E8567
:1035400041018280AD4765FB5147B547E365D7FE32
:10355000B7070400FC470325C8005146A28582979F
:103560000149971700209387A7849843814761D723
:10357000184371D32686A2854A850297814765BF85
:10358000AD4755FB0547B547E367D7FAB7070400D2
:10359000FC470325C8000546A2858297D9B7B7071F
:1035A0000400224403A34714B240924402498547D1
:1035B00041010283A1473E858280416779176304F8
:1035C000E504411122C406C685472A84639FF5009D
:1035D000B707040022852244B24003A3871397054E
:1035E00000209385E57B4101028389476399F500BB
:1035F000B707040083A7070B8545829771D9B240AE
:103600002244410182808280411122C43704040097
:103610008327841326C2AA84416506C69705002025
:10362000938505787D1582978327C40A17050000C6
:103630001305E5F88588829795C003230413224477
:10364000B240924497060020938606F34146C54552
:1036500017050020130545E141010283B2402244D1
:10366000924401454101828019C59707002023A19A
:10367000A774014582804545828011476364A70A8B
:10368000971602009386864D0A053695184141111A
:1036900006C63697AE87B285028751476145639C5F
:1036A000E700B7070400FC47514617150020130533
:1036B000A58382970145B24041018280054761455B
:1036C000E39BE7FEB7070400FC470546170500200B
:1036D0001305856CF9BF05476145E39EE7FCB70715
:1036E0000400FC470546170500201305256BD1B7DC
:1036F00051476145E391E7FCB7070400FC47514699
:10370000170500201305857F6DB719476145E394C0
:10371000E7FAB7070400FC47194617050020130510
:10372000A56841BF09458280411126C2B704040043
:1037300083A7C41322C44AC006C62E84970500205E
:10374000938505662A898297058905C59707002014
:10375000938787D183D7A70BA28503A3440D23109A
:10376000F4002244B24092444A8502490146410194
:103770000283B24022449244024949454101828079
:10378000411193962500AA852D4506C69700002075
:10379000E7802083B240014541018280411126C269
:1037A0009394250022C44AC02A843289A686AA8519
:1037B0000146254506C697000020E7808080A68642
:1037C0004A86A285294597F0FF1FE780807FB24097
:1037D000224492440249014541018280011122CCD8
:1037E00006CE3714004026CA4AC84EC652C4834487
:1037F0007405034AB4058349840503499405EFE041
:10380000BFD28347A40593F4F40F137AFA0F93E71A
:103810001700230DF40493F9F90F1379F90FB71773
:10382000004003C7A705058B6DFF03D5C705A38D12
:103830004705238C3705A38C2705A38B9704F240FB
:103840006244D2444249B249224A05618280411110
:103850009397050122C406C626C2C1872E8463D071
:103860000702B7040400FC54829719C1BC54829724
:103870002165218DB240224492444101828093F718
:10388000150013C51500FDF79397250163D40702B2
:10389000B704040083A7C41E8297BC4C37F602000D
:1038A000130606E08965170500200345A550829799
:1038B0000965C1B7939715010145E3DD07FA1715AF
:1038C00002001305652FEF80410DB7070400BC4FC0
:1038D000130600649165170500200345A54D8297E6
:1038E000116541BF1D71A2CC370404007C40CAC8D9
:1038F00003294403A6CA86CE445C171502001305AB
:10390000252782972A8697150200938565264A8582
:10391000829401E9171502001305C526EF80E1071F
:1039200001A0B7F600E0795798CAFD57DCCA0567D1
:10393000B7E700E023A0E7101306F00290C223A02F
:10394000E718010001003C441306C0038145480804
:103950008297971700209387677D3ECA8567938774
:103960000740231CF100A167938707E03ECEB7070D
:103970000105938707103ED0ED472312F1028547DA
:103980002303F102970700009387C7DFBEC49707A0
:1039900000009387E7E0BEC6B947A305F10297F799
:1039A000FFFF938747373EDA97070000938747E387
:1039B0003EDE8D679387D7E3B7F507002314F10246
:1039C0008146970700009387C71A7000E1051945E3
:1039D0003EDC97F0FF1FE780C05E5808814799469C
:1039E00070003E960346060085070507A30CC70036
:1039F000E398D7FED24791C7035781018567637368
:103A0000F70001A0B707040083A7470A4808829778
:103A1000AA8501C91715020013050518EF70F17783
:103A200001A0F6406644D644464925618280411192
:103A300026C2B704040083A7040806C622C41705DB
:103A40000000130505E18297170400201304843653
:103A50002300A4006920F92203450400224403A3A3
:103A60008405B240924437F60200130606E08965E9
:103A700041010283F3270080A18B17070020130761
:103A8000E72F99CBF32700809706002023A8F62E76
:103A90001C43DD9B7390078001000100B7170040B5
:103AA000930670052380D704930680FA2380D704F9
:103AB00001000100C8DB23800704F32600801C43BB
:103AC000A18BD58F739007809707002023A8072A22
:103AD000010001009707002023A0072E82804111DA
:103AE00006C6F3270080A18B97060020938606293F
:103AF00099CBF3270080170700202321F7289C4249
:103B0000DD9B7390078001000100B7170040130789
:103B100070052380E704130780FA2380E70401007F
:103B2000010003C7F70213677700A387E70223802A
:103B30000704732700809C42A18BD98F7390078064
:103B40009707002023AC07220100010081471305DD
:103B5000407E0147814605468545EFE03FB0B70707
:103B60000400B24003A3470701454101028301114C
:103B700022CC06CE26CAB7170040A38107042A84A8
:103B8000EF80613941ED6800EFF0AF95EFE09FCE37
:103B9000B307A4406376A400B707C0A8A297898F93
:103BA0003707B8A19387F7FD1307F7FD637BF7008D
:103BB0003245EFF0CF940945F2406244D2440561AA
:103BC00082802285453D3245EFF06F9337370040C4
:103BD0008347574093F70704A1C7970400209384B5
:103BE000A41D9C400D45E9FB694597E0FF1FE78058
:103BF00060709C408DC31305E402B707C0A863F74B
:103C0000A700370540571305E5022295A53597E033
:103C1000FF1FE780804B0545EFE09F95014569BF99
:103C200001007DB7F3270080A18B17070020130741
:103C3000E71499CBF32700809706002023A0F61401
:103C40001C43DD9B7390078001000100B717004003
:103C5000930670052380D704930680FA2380D70447
:103C60000100010083C6E70093E686012387D700A1
:103C700023800704F32600801C43A18BD58F73900B
:103C800007809707002023AB070E01000100F327F0
:103C90000080A18B99CBF32700809706002023AFEB
:103CA000F60C1C43DD9B7390078001000100B717E1
:103CB0000040930670052380D704930680FA238082
:103CC000D7040100010083C6170393E60602A38808
:103CD000D70223800704F32600801C43A18BD58FD5
:103CE000739007809707002023AA070801000100AE
:103CF000B7E700E03707001023A0E71082804111EA
:103D0000B717004022C4C05F03D7A70326C206C668
:103D100093140701EFE01FB69317240155671307AB
:103D20000718C983B387E702C180420513971400BF
:103D300041857D81B24022449244BA971707002002
:103D40001307C707AA97084341013E958280411196
:103D5000B717004022C4C05F03D7A70326C24AC0DA
:103D600006C62A8993140701EFE0DFB093172401F8
:103D7000556713070718C983B387E702C180420557
:103D80001397140041857D81B24022449244BA9732
:103D9000AA97B307F940170700202321F702024929
:103DA00041018280D5679387071833F7F50213081E
:103DB000C003930800191303D016130E4006B37600
:103DC00007032300D5008566938606E13376D70284
:103DD000B3D5F5029307007D2313F5003356060390
:103DE000C205C1813357D702A300C5001306C01610
:103DF0002301E50003576500337817036304080CBB
:103E0000B377C703E9C79377370093B61700938654
:103E1000D61663D0D506130640063376C7020D8B3F
:103E200023020500054393361700194E0547630525
:103E30000800014711C23687834745007107638D2B
:103E400067003E876376FE001387F7FF1377F70F4F
:103E5000058B1337170079074207418393881700B2
:103E600063F6E50293871500A301F500230215010F
:103E7000828093B717009387D716B387F540939541
:103E800007010507C1812313E500ADB705476305A9
:103E90000800014711C23687639C67009307C7017A
:103EA000B387F54093950701C18123021501BDBF7A
:103EB0006375FE00FD1793F7F70F858B93B7170017
:103EC000F907F9BFE359B3F49307E0167DB7E3545C
:103ED000B6F49307D01655B7834745001306C003C1
:103EE000834515009386F7FF2302D50083462500FE
:103EF00003473500F917B386C6027D171377F70F0E
:103F0000A301E5004207418393F7F70F054E994E51
:103F1000AE96B386C6020346050093050019369691
:103F20008356650013054006B3F5B60213F8360054
:103F30001338180033F5A6029398870193D8884167
:103F400063D508021305F07C130800199308400696
:103F5000FD16C206C1826365D504D567938707182D
:103F6000B307F7023385C7008280854881C5814841
:103F700011C1C2881383F7FF639BC7019387C801F0
:103F8000BA971397070141839377F30F75B763F4DB
:103F9000FE009377F30F858B93B71700F907CDB722
:103FA000B3F506039307E01681CDB3F51603930727
:103FB000D01699C593F7360093B717009387D71695
:103FC000BA9713970701418361B7AA8705C2130700
:103FD000F6FFB376C700054599EA23A00700CCC3D6
:103FE0002394C7002395E700014582800545828020
:103FF000232005008280AA871145B5C72DC683D628
:10400000070003D787000D45369783D62700158F05
:104010004207418329CB0145B9C583560600637326
:10402000D700BA86C206C182014713150701418134
:104030006366D5002310D600014582803385E500F4
:104040008348050003D8A70003D527000507337868
:104050000501C84342952300150103D52700050536
:104060002391A700D9B782802A8729CD83560500DE
:104070008357A500B697835625008507958FC207FD
:10408000C183BE866373F600B286C206C1820D4547
:104090009DCB81476394D70001458280035627005A
:1040A0000355A70003C805008507718D5043C2075B
:1040B000C1832A9623000601035627000506231113
:1040C000C700C9BF11458280AA871145B1CF29CE4B
:1040D00083D6070003D72700158F835606004207B3
:1040E00041836373D700BA86C206C18209450DCFEA
:1040F00001476366D7002310D6000145828003D5AF
:10410000070003D8A70033780501C8434295034848
:1041100005003385E50005072300050103D50700E9
:1041200005052390A700F1B78280FD5719C93841D2
:10413000FD5701CB784111C73C4593B71700B30732
:10414000F0403E858280AA871DC903470500637A37
:10415000B7002300B50003C70600136717002380CC
:10416000E60003C707000145637CE6002380C70023
:1041700083C7060093E727002380F60082807D55E1
:104180008280357126CBAA84368522CD4AC94EC796
:1041900006CFAE8932893684493F3DE97D5563803B
:1041A00009045C4499E393E40408034614013C4089
:1041B00054408A854A96268582978346F4042308CC
:1041C000A40005474C403C441305201C6383E600D3
:1041D000094582970305040181470DC57955FA40C9
:1041E0006A44DA444A49BA490D618280034614019F
:1041F00018013E973297034707F8B386F900850701
:104200002380E600139707014183E36127FFC1BFC5
:104210007D55F1B70111AA8605469305F1006D455C
:1042200006CE853715E18347F100094789879D8BC5
:10423000FD1793F7F70F6369F70017A7020013073D
:10424000E7B5BA9703850700F2400561828079716E
:1042500022D42A842E8506D6231E01002EC6F135CF
:104260001DEDB24609466C0813050004193F05E52B
:104270008347C10113D777002301E40013D74740D8
:10428000BD8B2300F4008347D1011D8BA300E40004
:104290008D8BA301F400B2502254456182807D557C
:1042A000DDBF797122D42A842E8506D6231E010013
:1042B0002EC6A53D29E9B24609466C08130520041F
:1042C000C93515ED8347C10113D777002301E400F9
:1042D00013D76740058BA302E40013D74740BD8B7B
:1042E0002300F4008347D1010D8BA300E40013D712
:1042F0003740058B9D8BA301E4002302F400B250EC
:104300002254456182807D55DDBF011122CC26CA31
:104310002A84AE84AE8609466C001305B00406CE2E
:1043200023160100B93D29E18347C1008583A3031A
:10433000F4008347D10013D76740058B2301E400C5
:1043400013D7274093D677000D8B8D8BA300D40015
:10435000A301E4002302F40081EAA6860546930542
:1043600084001305D004313DF2406244D24405611B
:104370008280011126CAAA84368522CC4EC652C438
:1043800006CE4AC8AE89328A3684453345E57D5526
:10439000638009045C4499E393F4F4070347F4044D
:1043A00085476319F706014993170901C18363E93A
:1043B00047039307C0076399F40083C70900858BFF
:1043C000BDC78547A307F4040305040111C179554E
:1043D000F2406244D2444249B249224A0561828095
:1043E0007C40544033852401B3852901054613756B
:1043F000F50F82973C444C402308A4001305201C71
:104400008297830704010509C5D39307C007E38694
:10441000F4FA75BF7C405440CE855286268582973B
:104420003C444C402308A4000945829759B7A30790
:10443000040459BF7D5569BF39C1011193D71500D7
:10444000958122CC26CA2A84B284BD8BA306B100F2
:1044500009466C001305B0054AC806CE3689230606
:10446000F100013F19E5CA862686A2851305E005FD
:104470000937F2406244D2444249056182807D5549
:104480008280011122CC26CA2E84AA84AE860546DB
:104490009305F1001305900506CEA3070100D53161
:1044A00011ED0345F100A28605467999458DA307D4
:1044B000A1009305F10013059005653DF2406244AB
:1044C000D2440561828001114AC81389850022CC3B
:1044D00026CA2A84AE84CA8605468145090506CEC9
:1044E000231601008D3125ED034724008547130570
:1044F0001400CA860D466303F7001D468145A131AD
:1045000039EDCA86314685452285353929E9CA867D
:104510000D468145130534003D3131E10347140058
:1045200083472400A6861207137707079E07D98FB3
:104530000347040009466C003D8BD98F2306F10028
:10454000034734008347D100130500040D8BF19B12
:10455000D98FA306F100313D19E126856539F24076
:104560006244D24442490561828001114AC81389DC
:10457000850022CC26CA2A84AE84CA860546814597
:10458000090506CE231601007D3E4DE9CA860D467B
:10459000814513051400453E55E1CA86054681450F
:1045A000130554004D3659E9CA863546994522858A
:1045B000593E49E5CA8605468145130534006136F2
:1045C00035EDCA861146814513054400AD3E3DE5F3
:1045D0008347C10003472400A68693F7F7031E070D
:1045E000D98F0347540009466C001A071377070454
:1045F000D98F0347140093F7F7FC13052004120723
:1046000013770703D98F03470400C19B3D8BD98FD4
:104610002306F100834734008E0713F78700834792
:10462000D10093F7070FD98F034744001D8BD98F13
:10463000A306F1003D3B19E12685E93EF2406244C4
:10464000D244424905618280011126CAAA842E857E
:1046500022CC06CE2E84A3070100C13C0DEDA2861C
:1046600005469305F1001305C007213E0DE50345FE
:10467000F1008588A2867999458DA307A10005469A
:104680009305F1001305C007ED3119E98347F100E7
:10469000858BA307F404F2406244D2440561828012
:1046A0004D55D5BF797122D42A842E8506D6231E76
:1046B00001002EC69D3C0DE57D5519CCB24609463C
:1046C0006C0871457D3C09E98347D1010347C1016D
:1046D000A207D98F2310F400B25022544561828082
:1046E0007D55DDBF011122CC2A842E8506CE2EC633
:1046F0002D3C11E909C8A2856244B246F240054644
:104700000D450561BDBCF24062447D550561828066
:1047100001114AC82A89328522CC26CA06CEAE8427
:10472000328423160100113445EDA28609466C003F
:1047300013056005B93449E983468406814713F7B8
:10474000F70F6364D700814721A8785013961700AC
:104750008507329703460700E31326FF83471700B8
:104760008D46515563E2960689450346D1000347BD
:10477000C1006384B402638FD404854593C6F7FFF8
:10478000D98F6386B400E206E186B3F7E60023061C
:10479000F100F18EA306D10011A8B366F60093C70D
:1047A000F7FFF98FA306D1002306F100A286054684
:1047B0006C0013056005753E01E9A2860546930568
:1047C000D100130570057536F2406244D244424967
:1047D000056182805D8F2306E100B366F6005DBF50
:1047E0007D55DDB7411126C2AA842E8522C406C696
:1047F0002E84EFF09F9315E18DC04C403C4415652D
:10480000130505E28297A2862244B240A68592440F
:104810000546130510024101ADB2B2402244924454
:104820007D5541018280797122D406D626D24AD0A4
:104830004ECE2A84A3070100EFF03F8FFD5759EDBC
:1048400083592405FD57638B09088357440113F7E7
:10485000170001C7FD17231AF400035744018547C9
:1048600063E5E7008947231AF400A28501458354D4
:104870004401D93BAA873DE1A2852131AA8739EDC0
:10488000B3F4990213F7F40F35C393F4F40FB38420
:104890009940C204C1800149637C9904A1E3084C9A
:1048A00003564401CA854A95A286793603574401C6
:1048B000AA873A99420913590901F9BF084C0356CE
:1048C0004401A6852695A286853E03574401AA8702
:1048D000BA94C204C18063F73403EDD3B2502254BA
:1048E00092540259F2493E85456182808144E5B780
:1048F000F5F7094703594401231AE40063EF340331
:10490000231A2401E1FFA2850545A53EAA8779F572
:10491000A2850545153BAA8771F1A2851305F10013
:10492000D1350347F100AA873D8B230BE4005DF5E9
:104930008546E305D7FADD5755B7F9F3084C03561A
:104940004401A6852695A286C53C03574401AA8743
:10495000BA94C204C1805DB70111930760FB22CCF9
:1049600026CA06CEAA842307F100A3070100EFF0B0
:10497000CFFB2A8405E9A68605469305E1001305C9
:10498000E007C53ABC44CC402A841305007D8297D9
:104990008547A387F40419E4DC4499CB2685613567
:1049A0002A840DC12285F2406244D244056182808E
:1049B000A68605469305F1000145EFF08FFC2A8499
:1049C00075F1E9BF814701489CDC23AE0403D9BFE0
:1049D000011122CC06CE2A84A3070100EFF0EFF4E8
:1049E000AA8719ED8547A307F4045C4499CFA286F2
:1049F00005469305F1000145EFF0AFF8AA8719CD00
:104A0000F24062443E8505618280A2860546930598
:104A1000F100EFF00FF7AA8765F5D1BF8347F100EA
:104A2000034704006313F702C1472309F4008547D5
:104A3000A30FF400B7070200938707105CD4231874
:104A400004022285113FAA8765BF2300F400F557B1
:104A500045BF7971A307A10006D622D426D24AD039
:104A60004ECE52CC56CA5AC87D55C1C559C203470D
:104A7000C6018347F100595563FDE70632842E8A4B
:104A8000B2869305F10005461305F002EFF07F8E24
:104A90002DE1835744013D47636DF70613F7170077
:104AA00001C7FD17231AF400814493090003814ACA
:104AB0004149414B0356440193170901C183B30592
:104AC0005A01A28663E1C7044E85EFF08FEB83475E
:104AD0004401BE9ABE9993FAFA0F93F9F90FBE9466
:104AE00093F4F40F33099B401379F90F19E1E313A1
:104AF00009FCB250225492540259F249624AD24AF5
:104B0000424B456182803E864E85EFF08FE7CA9426
:104B1000C1BFA2864146D28513050003EFF06FE6C0
:104B2000C9BF011106CE22CC26CA83C6E50102C048
:104B300002C202C402C601470D4625489377F70F0B
:104B400063E4D70061551DA0B308C7029C55050753
:104B5000C69783C80700E39308FF2A8403C517009C
:104B60002E868A8583C42700ED3511C5F240624444
:104B7000D244056182801C08BE9483C704FF13F7EA
:104B800017002300E40013D71740058BA300E400AF
:104B900013D727408D87058B9D8B2301E400A3014C
:104BA000F400E9B75D71A2C42A843285CAC04EDE22
:104BB00086C6A6C252DC56DA5AD85ED662D466D20F
:104BC000AE893289EFF06FD6631E050E630C040EBA
:104BD000034AF9049209AA84A2998D4A054B254CEF
:104BE000930B900263103403B64026442685064991
:104BF0009644F259625AD25A425BB25B225C925C92
:104C0000616182808347040063F8FA0063166A01D9
:104C1000CA850145153CAA84ADE083470400638D35
:104C20008709639277038357090502C802CA02CC39
:104C300002CE93F7070291EB8346E9010147937790
:104C4000F70F63EED702E15445B7CA8605469305D0
:104C5000F1007945EFF0EFD229E58347F10013F732
:104C6000070419C3938707F82312F40063176A0136
:104C7000CA850545EFF05F9DAA844104A5B73306B8
:104C80005703832789020507B29703C60700E31875
:104C900076FB03C517004A860C0883CC2700553BDA
:104CA00019C1AA8491B71C10BE9C03C70CFF93774F
:104CB000F7071377070475B7CA85130544009535C0
:104CC00055D5C5B7FD540DB783570505898B85CFDD
:104CD000011122CC06CE2A84EFF02FC5FD5719ED25
:104CE00093079002228685450A852300F1005D3DE9
:104CF000AA8709E5035741002316E404F240624401
:104D00003E8505618280E1573E8582808346D601DB
:104D100081470D4813F7F70F6364D7000145828080
:104D2000B388070358528507469783480700E393E3
:104D3000B8FE41110D46BA8506C6EFF0C10EB2406D
:104D40000545410182805D71CAC02A893285A2C4AD
:104D5000A6C24EDE86C652DC56DA5AD85ED662D479
:104D6000AE89B284EFF06FBC7D542DE1630009067B
:104D700093058003B389B90283CAF404096A054B19
:104D8000894B138C8400130A0A71CA99631C390178
:104D900085470144639CFA02A6850545EFF0DF8A4A
:104DA0002A842DA0638E6A01834709006384670506
:104DB0009DCB6387770525476382E71C615439A043
:104DC000A6850145EFF05F882A8479DD2285B6400B
:104DD000264496440649F259625AD25A425BB25B63
:104DE000225C61618280A68513054900EFF0AFED7A
:104DF0002A84B1AAA68513054900EFF00FF7CDBFAD
:104E0000E2862D46854513059900EFF0CFB32A843D
:104E100055FDA68605460C081305B006EFF06FB6E3
:104E20002A844DF58347490003470101A68696076A
:104E30001377F7FD93F70702D98F05460C08130582
:104E4000B0062308F100EFF0CFD22A8441F1A68604
:104E500009460C081305B0042318010023060100BD
:104E6000EFF02FB22A843DF1834701010347B900D7
:104E70005544858B0607D98F2308F1000347590055
:104E8000834711011E0793F7F703D98F0347690082
:104E90001A0713770704D98F03477900CD9B0A07B8
:104EA000318BD98F03478900F19B0D8BD98FA308D4
:104EB000F100A6856800EFF0FF828347C100918B67
:104EC0005D8D1375F50F4DE10C08A6860946130597
:104ED000B004EFF00FCABC44CC402A841305803ED6
:104EE0008297E31504EE83475900BDE79305C90097
:104EF000A38F0400A68605461305D004EFF06FC704
:104F0000BC44CC402A841305803E8297E31004EC15
:104F1000A68605460C0813054004EFF08FA62A84E8
:104F20001DE58347A900034799000C0892073D8BB4
:104F3000D98FA6860546130540042308F100EFF03B
:104F40004FC3BC44CC402A841305803E829713098A
:104F50008903E30D04E29DBD8547A38FF4008347D9
:104F600079002380F4026DB7BC44CC407D14528597
:104F70001374F40F829715FC455489BD2686A54508
:104F8000680002C802CA02CC02CE23160100230721
:104F90000100AD3BE30405E20345D10026860C0881
:104FA0004D3C2A844DF50346E1001808835549001D
:104FB0009357160093961700BA9603D7060093F5F9
:104FC000F57F137707804D8F2390E6001387170036
:104FD000140806073697835607008355690093F631
:104FE000068093F5F57FCD8E2310D7001387270019
:104FF00014080607369783560700835589008D07E6
:1050000093F6068093F5F57F8607CD8E918F23105A
:10501000D70093F7F70F0147639AE700A68641464A
:105020000C0813050003EFF0CFB4D9B305071377CD
:10503000F70FDDB7397122DC2A84328526DA4AD8A7
:1050400006DE4ED652D456D25AD02E89B284EFF014
:10505000CF8D01CD7D55F2506254D2544259B25990
:10506000225A925A025B216182806DD4930580039B
:105070003309B90283C9F4048D4A094A254B2299A0
:10508000631B890085470145E397F9FCA685054523
:10509000EFF08FDBC9B78347040063E0FA02638651
:1050A000470F834704000547638AE70285C363818E
:1050B000470F638B6703615579BF8547E393F9FE1B
:1050C000A6850145EFF04FD859F5E1BFA685130538
:1050D0004400EFF0CF97630A0510B5BFA68513050E
:1050E0004400EFF00F9CC5BF2686A545680002C8A6
:1050F00002CA02CC02CE2316010023070100393177
:105100005DD90345D10026860C08EFF09F9421F568
:105110008347E10014101010138717001377F70F5F
:105120003697034707FFBE9683C606FF2207558FB3
:105130001377F77F2312E4001387370014101377D7
:10514000F70F36979386270093F6F60F034707FF6E
:10515000B29683C606FF2207558F1377F77F231376
:10516000E400138757001377F70F9107329793F7EF
:10517000F70F034707FFB29783C707FF2207D98FAF
:1051800093F7F77F2314F4008DA08547E38AF9F2A3
:105190002685EFE09FF9E31F05EAA68605460C0881
:1051A0001305B006EFE0FFFDE31705EA83470101B1
:1051B000A685130544009587858B2302F400EFF044
:1051C000CF94E31A05E8A68605460C0813054004AB
:1051D000EFE03FFBE31105E88347010113D74700E8
:1051E000BD8B2305E400A304F4001304840349BD2C
:1051F000FD5719C93841FD5701CB784111C73C45CE
:1052000093B71700B307F0403E858280014781467F
:1052100093082002170802001308489A3703100069
:10522000370E08009377F70F63E4B7003685828066
:10523000B307E50083C7070063E2F8088A07C2974F
:105240009C43C29782871C4293E717001CC229A87F
:105250001C4293E72700DDBF1C4293E74700FDB7E0
:105260005C4293E717005CC205076DBF1C4293E7E1
:105270008700E9BF1C4293E70701C9BF1C4293E7BF
:105280000702E9B71C4293E70704C9B71C4293E73A
:1052900007086DBF1C4293E707104DBF1C4293E700
:1052A00007206DB75C4293E7470075BF1C42B3E728
:1052B000C70169BF1C42B3E7670049BFE1566DB73C
:1052C000797122D426D22E84AA842E8668008D4538
:1052D00006D602C802CA02CC02CE2316010023075A
:1052E0000100EFF0BFA239C90345D10022860C08A6
:1052F000EFF02FF60DED8347E1001810A286A90705
:1053000093F7F70FBA9703C707FF41460C08799B3D
:10531000458F130500032388E7FEEFF08F851C5CA3
:1053200001ED0547639AE40093E787001CDCB25067
:105330002254925445618280DD9BCDBF6155C5BF2B
:10534000797122D426D22E84AA842E8668009145B3
:1053500006D602C802CA02CC02CE231601002307D9
:105360000100EFF0BF9A31CD0345D10022860C0831
:10537000EFF02FEE21E18347E100181093967400BF
:105380008D0793F7F70FBA9703C707FF41460C083D
:105390001377F707558F13050003A2862388E7FECE
:1053A000EFE03FFD1C5C01ED0547639AE40093E7E5
:1053B00007011CDCB2502254925445618280BD9B8F
:1053C000CDBF6155C5BF797122D426D22E84AA845F
:1053D0002E866800954506D602C802CA02CC02CEC7
:1053E0002316010023070100EFF05F9239CD03453A
:1053F000D10022860C08EFF0CFE521E18347E100E0
:105400001810939674008D0793F7F70FBA9703C798
:1054100007FF41460C081377F707558F1305000364
:10542000A2862388E7FEEFE0DFF41C5C01ED054770
:10543000639AE40093E707021CDCB25022549254B2
:105440004561828093F7F7FDC5BF6155FDB779715E
:1054500022D426D22E84AA842E866800994506D6A8
:1054600002C802CA02CC02CE2316010023070100A3
:10547000EFF0DF8931CD0345D10022860C08EFF033
:105480004FDD1DED8347E10018109396340085072A
:1054900093F7F70FBA9703C707FF41460C085D9BC8
:1054A000558F13050003A2862388E7FEEFE07FEC0B
:1054B0001C5C01ED0547639AE40093E707041CDCDC
:1054C000B250225492544561828093F7F7FBC5BFD6
:1054D0006155FDB7797122D426D22E84AA842E86F6
:1054E00068009D4506D602C802CA02CC02CE231629
:1054F000010023070100EFF07F8131CD0345D1008A
:1055000022860C08EFF0EFD41DED8347E100181060
:1055100093964400850793F7F70FBA9703C707FFE1
:1055200041460C083D9B558F13050003A286238836
:10553000E7FEEFE01FE41C5C01ED0547639AE40021
:1055400093E707081CDCB2502254925445618280D4
:1055500093F7F7F7C5BF6155FDB7797122D426D20D
:105560002E84AA842E866800A14506D602C802CAE7
:1055700002CC02CE2316010023070100EFF00FF941
:1055800039CD0345D10022860C08EFF08FCC21E104
:105590008347E100181093965400850793F7F70F9F
:1055A000BA9703C707FF41460C081377F7FD558FDD
:1055B00013050003A2862388E7FEEFE09FDB1C5C57
:1055C00001ED0547639AE40093E707101CDCB25035
:1055D000225492544561828093F7F7EFC5BF61551D
:1055E000FDB7797122D426D22E84AA842E86680033
:1055F000A54506D602C802CA02CC02CE2316010077
:1056000023070100EFF08FF031CD0345D100228652
:105610000C08EFF00FC41DED8347E10018109396BE
:105620003400950793F7F70FBA9703C707FF414672
:105630000C085D9B558F13050003A2862388E7FEA7
:10564000EFE03FD31C5C01ED0547639AE40093E76C
:1056500007201CDCB250225492544561828093F79B
:10566000F7DFC5BF6155FDB7797122D426D22E84EC
:10567000AA842E8668009305200206D602C802CAB4
:1056800002CC02CE2316010023070100EFF00FE841
:1056900031C90345D10022860C08EFF08FBB05ED20
:1056A0000347E1001C10939614003E97834707FFC1
:1056B00041460C08F59BD58F13050003A2862308ED
:1056C000F7FEEFE01FCB5C5C01ED0547639AE40059
:1056D00093E747005CDCB2502254925445618280CB
:1056E000ED9BCDBF6155C5BF797122D426D22E84E2
:1056F000AA842E866800CD4506D602C802CA02CC0E
:1057000002CE2316010023070100EFF02FE039CD70
:105710000345D10022860C08EFF0AFB315ED034727
:10572000E1001C10939654003E97834707FF4146C3
:105730000C0893F7F7FDD58F13050003A286230805
:10574000F7FEEFE01FC31C5C09ED0547639BE40017
:1057500037070800D98F1CDCB2502254925445619F
:1057600082803707F8FF7D17F98FF5B76155EDB7E0
:10577000797122D426D22E84AA842E866800D1453F
:1057800006D602C802CA02CC02CE231601002307A5
:105790000100EFF0AFD731CD0345D10022860C08D0
:1057A000EFF02FAB0DED0347E1001C109396440082
:1057B0003E97834707FF41460C08BD9BD58F1305D5
:1057C0000003A2862308F7FEEFE0BFBA1C5C09EDD8
:1057D0000547639BE40037071000D98F1CDCB250EB
:1057E00022549254456182803707F0FF7D17F98F6C
:1057F000F5B76155EDB78346E60181470D4813F7CC
:10580000F70F6364D70001458280B38807031856F9
:105810008507469783480700E393B8FE41110D467C
:10582000BA8506C6EFE02160B2400545410182809D
:10583000411122C406C62A84EFF09F9B2DE99307ED
:1058400040022300F400B70700208D073CC85C44E9
:1058500093B71700A308F4001C4C91E797F70100D9
:105860009387873E1CCC2285EFF08F9629E197170E
:1058700002009387673D5CD097170200938707402B
:105880001CD4856793878710231EF4009D47230F40
:10589000F40097E7FF1F938727D57CD0A147230407
:1058A000F40622852244B24041016FF0EFC1B240BC
:1058B00022444101828039714AD8814701482A89AE
:1058C000328522DC26DA06DE4ED652D42EC6B284CB
:1058D0003ECC42CEEFF0DF917D5463140516630297
:1058E0000916B24530084A85EFF05F922A84631AA0
:1058F0000514A6860546930571011305D007624974
:10590000F249EFE01F882A84631D0512937719007E
:1059100099C78347710193E74700A30BF100937781
:10592000290099C78347710193E72700A30BF10072
:105930009377490099C78347710193E71700A30B39
:10594000F10093F6190099C60347710113678700A8
:10595000A30BE10093777900D58F99CBA6860546F6
:10596000930571011305D007EFE0BFA0631A050C82
:10597000937789FF13F7E9FFD98F6384070C03CA74
:10598000F40485476309FA0A9377890091C7A685CD
:105990000545EFF0FF922A849377090191C7A68508
:1059A0000545EFF0FF992A849377090291C7A685F0
:1059B0000545EFF05FA12A849377090491C7A68576
:1059C0000545EFF0DFA82A849377090891C7A685DB
:1059D0000545EFF03FB02A849377091089C7A68563
:1059E0000545A53E2A849377092089C7A6850545E4
:1059F000CD3E2A8493F9490063860900A6850545B2
:105A0000A5312A849317C90063D60700A6850545EA
:105A1000E1392A849317B90063D60700A6850545A6
:105A2000813B2A848547631EFA0001ECA685054563
:105A3000EFE09FC131A0A6850145EFE0FFC029D569
:105A40002A842285F2506254D2544259B259225AC1
:105A50002161828039714AD8814701482A8932857B
:105A600022DC26DA06DE4ED652D42EC6B2843ECCD6
:105A700042CEEFF0EFF77D5463140516630209166A
:105A8000B24530084A85EFF06FF82A84631A05148E
:105A9000A6860546930571011305D0076249F249B0
:105AA000EFE02FEE2A84631D05129377190091C74A
:105AB00083477101ED9BA30BF1009377290091C7F8
:105AC00083477101F59BA30BF1009377490091C7C0
:105AD00083477101F99BA30BF10093F6190091C65E
:105AE000034771015D9BA30BE10093777900D58F8C
:105AF00099CBA6860546930571011305D007EFE003
:105B00005F87631E050C937789FF13F7E9FFD98F31
:105B10006388070C03CAF4048547630DFA0A937778
:105B2000890091C7A6850145EFF08FF92A84937704
:105B3000090191C7A6850145EFF09F802A849377DC
:105B4000090291C7A6850145EFF0FF872A84937764
:105B5000090491C7A6850145EFF07F8F2A849377CA
:105B6000090891C7A6850145EFF0DF962A8493774F
:105B7000091091C7A6850145EFF03F9E2A849377CF
:105B8000092091C7A6850145EFF0BFA52A8493F9A6
:105B9000490063870900A6850145EFF0FFAC2A8420
:105BA0009317C90063D70700A6850145EFF0DFB35F
:105BB0002A849317B90063D60700A68501454D3E98
:105BC0002A848547631EFA0001ECA6850545EFE0AF
:105BD000BFA731A0A6850145EFE01FA729D12A84E0
:105BE0002285F2506254D2544259B259225A21614C
:105BF00082805971A2D42A843285A6D2CAD086D690
:105C0000CECED2CCD6CADAC8DEC6E2C4E6C2EAC07C
:105C10006EDE2E89B284EFF0AFDD6319055663079F
:105C20000456930580033309B90203C7F404096AD3
:105C3000F97A3AC0717BA16BAA877D1AFD1A3307E6
:105C400024013AC27D1BFD1B1247631CE4028246FD
:105C500005476398E60091E7A6850545EFE0DF9EDE
:105C6000AA87B650265496540659F649664AD64A2B
:105C7000464BB64B264C964C064DF25D3E85656113
:105C8000828003470400894663F5E600A546631950
:105C9000D700268685452285EFF0EF8AAA8715A6CC
:105CA000824605476397E600A6850145EFE0DF9948
:105CB000AA87C5FB03470400A14663EFE6009947A6
:105CC0006379F73891476304F70C63E8E7188D4769
:105CD0006303F724E157F5A4D146630AD73EF5469E
:105CE000630AD728CD47E317F7FE2686CD45680817
:105CF00002D002D202D402D6231E0100230F0100DB
:105D0000EFF0CF80E157630E052A0345D1012686C7
:105D10000C10EFE01FD4AA876315052A8345E10123
:105D2000181093D7150093961700BA96035744009E
:105D300003D606001207418B3D9A518F2390E6004F
:105D40001387170014180607369783566400231824
:105D5000D7FE13872700141806073697835684004A
:105D60002318D7FE138737001418060736979107B4
:105D70008356A40086078D8F2318D7FE93F7F70F5D
:105D800001476380E70C05071377F70FDDBF268611
:105D90009145680802D002D202D402D6231E010027
:105DA000230F0100EFE09FF6E157630C0520034548
:105DB000D10126860C10EFE0DFC9AA876313052006
:105DC0000346E1011C10F9761357160093151700CE
:105DD000BE9583D705000965F58F83564400B3F659
:105DE0004601D58F83568400B3F75701B606E98E76
:105DF000D58F8356A4001165B3F76701BA06E98E03
:105E0000D58F8356C400B3F77701BE06D58F239094
:105E1000F5009307170014108607B69783D607007E
:105E200083556400090793F6068093F5F57F06070E
:105E3000CD8E118F2390D7001377F70F8147631A08
:105E4000F700A68641460C1013050003EFE06FD261
:105E5000B1B5850793F7F70FDDB726869545680836
:105E600002D002D202D402D6231E0100230F010069
:105E7000EFE0DFE9E157630605140345D10126860B
:105E80000C10EFE01FBDAA87631D05120346E10158
:105E90001C10F9761357160093151700BE9583D77B
:105EA00005000965F58F83564400B3F64601D58F8A
:105EB00083568400B3F75701B606E98ED58F835613
:105EC000A4001165B3F76701BA06E98ED58F835632
:105ED000C400B3F77701BE06D58F2390F500930772
:105EE000170014108607B69783D607008355640001
:105EF000090793F6068093F5F57F0607CD8E118F7F
:105F00002390D7001377F70F8147E30CF7F285074B
:105F100093F7F70FDDBF26868D45680802D002D2C1
:105F200002D402D6231E0100230F0100EFE01FDE82
:105F3000E15741C90345D10126860C10EFE07FB13E
:105F4000AA8741E18346E101101893D71600139701
:105F5000170032978507035644008607958F23184C
:105F6000C7FE93F7F70F0147E38DE7EC05071377BB
:105F7000F70FDDBF3EC6268693074400F545680847
:105F80003EC402D002D202D402D6231E0100230F47
:105F90000100EFE0BFD7E30F05D2834CE1010349D5
:105FA000D101B24793892C00130C390093F9F90FF2
:105FB000137CFC0F93D91900CA8D0147214D6375DD
:105FC000BC011304840349B126860C106E853AC6C1
:105FD000EFE03FA8AA87324731E56373B901814CEE
:105FE0006313BC014E8D93D61C00B305D74093F7C5
:105FF000F60F3387B7001377F70F63EAA7038346DB
:10600000E1018607958F93F7F70F8146639FD702CB
:10601000A68641460C10130500033AC6EFE06FB5A3
:106020003247AA8713881D00937DF80F49BF9397C5
:1060300016001010B29713161700224785063A96DD
:10604000035706002390E7005DB7850693F6F60F29
:1060500075BF26869D45680802D002D202D402D6BA
:10606000231E0100230F0100EFE05FCAE15731D981
:106070000345D10126860C10EFE0BF9DAA8731F1C0
:106080008345E10118108356440093D715001396F9
:1060900017003A960357060093F6F63F85071377E5
:1060A00007C0558F835664001377F7BF8607AA068B
:1060B00093F60640558F8D8F2310E60093F7F70F68
:1060C0000147E380E7D805071377F70FDDBF268682
:1060D000D145680802D002D202D402D6231E0100A4
:1060E000230F0100EFE09FC2E157E30C05EC0345ED
:1060F000D10126860C10EFE0DF95AA87E31305ECAB
:106100008346E101101893D716001387170006077E
:106110003297035644002318C7FE13872700101830
:1061200006073297035664002318C7FE138737000B
:10613000101806073297035684002318C7FE1387EA
:1061400047001018060732970356A4002318C7FE0D
:10615000138757001018060732970356C4002318F8
:10616000C7FE138767001018060732979D0703566E
:10617000E4008607958F2318C7FE93F7F70F0147B2
:10618000E381E7CC05071377F70FDDBFFD57D1BCDF
:106190001971A2DC2A843285CAD8CED686DEA6DA68
:1061A000D2D4D6D2DAD0DECEE2CCE6CAEAC8EEC687
:1061B000AE893289EFF0CF836311053A630F04385B
:1061C00093058003B389B902834AF904096AAA8452
:1061D000894B254C0D4B7D1AA299631B34038547CF
:1061E0006398FA0091E4CA850545EFE0EFC5AA84FB
:1061F000F650665426854659D654B659265A965AAC
:10620000065BF64B664CD64C464DB64D0961828016
:106210008347040063F4FB00639B87014A8685453E
:106220002285EFE03FE1AA84130484037DB76388ED
:10623000673385476397FA00CA850145EFE0CFC011
:10624000AA84DDF4834704002147636EF7001947F1
:1062500063F9E7201147638DE7086368F7126382EB
:106260006731E154D1B75147638CE724754763899F
:10627000E7124D47E397E7FE4A86CD45681002D8FE
:1062800002DA02DC02DE2316010223070102EFE03C
:10629000FFA7E15451D90345D1024A860C18EFE01B
:1062A0004FFBAA8451F18347E10294008583139741
:1062B00017003697035707FF1187058B2312E40059
:1062C0001387170006073697035707FF2313E400C9
:1062D000138727008D07060786073697B69703575B
:1062E00007FF83D707FF2314E4002315F4002DBF15
:1062F00002D802DA02DC02DE2316010223070102C1
:106300004A8691456810EFE07FA0E15411DD034516
:10631000D1024A860C18EFE0CFF3AA84E31605F009
:106320008347E1029400138717001377F70F36971E
:10633000034707FFBE9683C606FF2207558FB37635
:1063400047012312D4009356D740858A2314D400E2
:106350009356E7403D832316E400858A1387370070
:106360002315D4001377F70F94008907369793F716
:10637000F70F034707FFB69783C707FF2207D98F99
:1063800093F7F77F2313F40045B502D802DA02DC55
:1063900002DE23160102230701024A8695459DB7B6
:1063A0004A86F5456810130D440002D802DA02DC73
:1063B00002DE2316010223070102EFE03F95E3020C
:1063C00005EA8348D102834EE102814D938638006D
:1063D00013832E0093F6F60F1373F30FC68C414E02
:1063E0000148E3E396E54A860C18668576CE42CCF2
:1063F00072CA1AC836C646C4EFE0AFE5AA84A248FE
:10640000B2464243524E6248F24E11E963F398019C
:10641000814E639396011A8E76876366C701850C59
:1064200093FCFC0F7DBF9307170090003A9693F7FB
:10643000F70F034606FF63FAC7018C00AE9703C847
:1064400007FF09079377F70F220813971D006A9734
:1064500033660601850D2310C70093FDFD0F3E87AF
:106460006DBF4A869D45681002D802DA02DC02DE62
:106470002316010223070102EFE05F89E154E305DF
:1064800005DA0345D1024A860C18EFE08FDCAA84B6
:10649000E31C05D80347E10294009307170093F724
:1064A000F70FB69783C707FF3697034707FFA20783
:1064B000D98F13F7F73FA9872312E400858BD9B54D
:1064C0004A86D145681002D802DA02DC02DE2316C1
:1064D000010223070102EFE07F83E154E30605D4C4
:1064E0000345D1024A860C18EFE0AFD6AA84E31D1B
:1064F00005D28347E10294008583138717000607BE
:106500003697035707FF2312E40013872700060777
:106510003697035707FF2313E40013873700060756
:106520003697035707FF2314E40013874700060735
:106530003697035707FF2315E40013875700990781
:10654000060786073697B697035707FF83D707FFD7
:106550002316E4002317F400C1B9FD5451B9E3999F
:1065600004C84A868D45681002D802DA02DC02DED1
:106570002316010223070102EFE04FF9E154E3057E
:1065800005CA0345D1024A860C18EFE08FCCAA84D5
:10659000E31C05C80347E10294009307170093F733
:1065A000F70FB69783C707FF3697034707FFA20782
:1065B000D98F2312F4008DB95D71A6C2AA843285E9
:1065C000CAC04EDE86C6A2C452DC56DA5AD85ED69F
:1065D00062D466D26AD0AE893289EFE07FC163139C
:1065E000052463810424034AF90492092A84A699A4
:1065F000254B8D4BCD4A130C7002930C80021D4D20
:106600006380340783C7040013F7F70D6313670330
:106610004A8685452685EFE0EFD885472A846318AA
:10662000FA0011E5CA850545EFE00F822A84C1040E
:10663000C1BF63FAFB0085476317FA00CA850145AD
:10664000EFE08F802A8465F483C70400638F571BB3
:1066500063E7FA026387A70921476381E710615462
:106660002285B640264496440649F259625AD25AC7
:10667000425BB25B225C925C025D61618280638EF0
:106680008711E39E97FD4A8693058002680002C841
:1066900002CA02CC02CE2316010023070100EFF04C
:1066A0008F9555DD0345D1004A860C08EFE06FBA9F
:1066B000631805168347E1001810850793F7F70F55
:1066C000BA9783C707FF13D75740058B2382E4008F
:1066D00013D76740058B9D83A382E4002383F400D6
:1066E00095A84A869D45680002C802CA02CC02CE1F
:1066F0002316010023070100EFF0EF8F2DD1034592
:10670000D1004A860C08EFE0CFB4631B0510834725
:10671000E10014101010138717001377F70F369746
:106720009386270093F6F60FB296034707FF83C6BA
:1067300006FF2207C206558FB306F6008D0793F7B2
:10674000F70FB29783C606FF83C707FF558FE2078F
:10675000D98FDCC08547E31CFAECE9B502C802CA50
:1067600002CC02CE23160100230701004A86A14570
:106770006800EFF04F88E30405EE0345D1004A8638
:106780000C08EFE00FAD49ED8347E1001810BA9710
:1067900083C707FF2382F40075BF4A869305700202
:1067A000680002C802CA02CC02CE231601002307E9
:1067B0000100EFF04F84E30405EA0345D1004A8667
:1067C0000C08EFE00FA929ED8347E10018108507B9
:1067D00093F7F70FBA9783C707FF13F717002382C2
:1067E000E40013D71740058BA382E40013D727409A
:1067F000058B2383E40013D737409187058B858B66
:10680000A383E4002384F400B1B702C802CA02CC17
:1068100002CE23160100230701004A86CD4589BF19
:106820002A843DBD7D542DBD011122CC2A843285A0
:1068300026CA4EC606CE4AC852C456C2AE84B289D3
:10684000EFE01F9B39E57D5505CC8E043709180014
:10685000A294514A854A1309891F63149400014583
:1068600005A0034504006368AA02B397AA00B3F722
:10687000270195C34C404E862104EFD07FE971DD9E
:10688000F2406244D2444249B249224A924A0561E6
:1068900082807D55F5B76155E5B783C7060093162D
:1068A0000601C1822E86AA853E856F40810883C776
:1068B000060093160601C1822E86AA853E856F408A
:1068C000A1104205418117C3FF1F6700433F45C127
:1068D000411122C406C685472A846392F5089307AE
:1068E000900617D7FF1FA30DF74C9707000093875B
:1068F00007FB3CC1970700009387A7FB7CC14CC5F1
:10690000EF30512497D7FF1F238C074A97D7FF1FDB
:106910009387074B83C70700232C0400B24017D787
:10692000FF1FA301F74A97D7FF1F9387774983C7B4
:106930000700014517D7FF1F2306F74897D7FF1F0A
:10694000938747485CC0970700009387C7F73CC40C
:106950009307E002231AF400224441018280DDF50E
:10696000171502001305852EEF50210345B77D55FD
:1069700082809307250293F7F70F13074002AA8539
:10698000636EF718170702001307C7308A07BA9714
:106990009C43BA9782878545170502001305C538C1
:1069A0006F40B17F8945170502001305A539CDBF9A
:1069B000FD55170502001305253BDDB7F9551705F1
:1069C00002001305A543E9BFF5551705020013059D
:1069D000E54BF9B7E1551705020013052551C9B775
:1069E000C155170502001305E5575DBFD1551705C1
:1069F00002001305255E6DB7F1551705020013055A
:106A0000656579BFED55170502001305257149BF6E
:106A1000E955170502001305657C59B7E5551715AB
:106A2000020013056587ADBFDD551715020013057C
:106A30002594BDB7D955171502001305259B8DB7B1
:106A4000CD5517150200130525A299BFC955171575
:106A500002001305A5A8A9B7C5551715020013050F
:106A6000A5AF3DBFBD5517150200130525B60DBFD7
:106A7000B955171502001305E5BD1DB7B555171516
:106A80000200130525C429BFB155171502001305CF
:106A900025CA39B7AD55171502001305A5CE09B79C
:106AA000A95517150200130565D3DDBDA5551715AA
:106AB00002001305E5D6EDB5A15517150200130523
:106AC00025DEF9BD9D5517150200130525E5C9BD45
:106AD0009955171502001305A5EAD9B5955517154F
